{
  "_format": "hh-sol-artifact-1",
  "contractName": "CrowdFunding",
  "sourceName": "contracts/Campaign.sol",
  "abi": [
    {
      "inputs": [],
      "stateMutability": "nonpayable",
      "type": "constructor"
    },
    {
      "inputs": [],
      "name": "campaignCount",
      "outputs": [
        {
          "internalType": "uint256",
          "name": "",
          "type": "uint256"
        }
      ],
      "stateMutability": "view",
      "type": "function"
    },
    {
      "inputs": [
        {
          "internalType": "uint256",
          "name": "",
          "type": "uint256"
        }
      ],
      "name": "campaigns",
      "outputs": [
        {
          "internalType": "address",
          "name": "owner",
          "type": "address"
        },
        {
          "internalType": "string",
          "name": "title",
          "type": "string"
        },
        {
          "internalType": "string",
          "name": "description",
          "type": "string"
        },
        {
          "internalType": "string",
          "name": "image",
          "type": "string"
        },
        {
          "internalType": "uint256",
          "name": "targetAmount",
          "type": "uint256"
        },
        {
          "internalType": "uint256",
          "name": "amountCollected",
          "type": "uint256"
        },
        {
          "internalType": "uint256",
          "name": "deadline",
          "type": "uint256"
        }
      ],
      "stateMutability": "view",
      "type": "function"
    },
    {
      "inputs": [
        {
          "internalType": "address",
          "name": "_owner",
          "type": "address"
        },
        {
          "internalType": "string",
          "name": "_title",
          "type": "string"
        },
        {
          "internalType": "string",
          "name": "_description",
          "type": "string"
        },
        {
          "internalType": "string",
          "name": "_image",
          "type": "string"
        },
        {
          "internalType": "uint256",
          "name": "_targetAmount",
          "type": "uint256"
        },
        {
          "internalType": "uint256",
          "name": "_deadline",
          "type": "uint256"
        }
      ],
      "name": "createCampaign",
      "outputs": [
        {
          "internalType": "uint256",
          "name": "",
          "type": "uint256"
        }
      ],
      "stateMutability": "nonpayable",
      "type": "function"
    },
    {
      "inputs": [
        {
          "internalType": "uint256",
          "name": "_id",
          "type": "uint256"
        }
      ],
      "name": "donateToCampaign",
      "outputs": [
        {
          "internalType": "bool",
          "name": "",
          "type": "bool"
        }
      ],
      "stateMutability": "payable",
      "type": "function"
    },
    {
      "inputs": [],
      "name": "getAllCampaigns",
      "outputs": [
        {
          "components": [
            {
              "internalType": "address",
              "name": "owner",
              "type": "address"
            },
            {
              "internalType": "string",
              "name": "title",
              "type": "string"
            },
            {
              "internalType": "string",
              "name": "description",
              "type": "string"
            },
            {
              "internalType": "string",
              "name": "image",
              "type": "string"
            },
            {
              "internalType": "uint256",
              "name": "targetAmount",
              "type": "uint256"
            },
            {
              "internalType": "uint256",
              "name": "amountCollected",
              "type": "uint256"
            },
            {
              "internalType": "uint256",
              "name": "deadline",
              "type": "uint256"
            },
            {
              "internalType": "uint256[]",
              "name": "donations",
              "type": "uint256[]"
            },
            {
              "internalType": "address[]",
              "name": "donors",
              "type": "address[]"
            }
          ],
          "internalType": "struct CrowdFunding.Campaign[]",
          "name": "",
          "type": "tuple[]"
        }
      ],
      "stateMutability": "view",
      "type": "function"
    },
    {
      "inputs": [
        {
          "internalType": "uint256",
          "name": "_id",
          "type": "uint256"
        }
      ],
      "name": "getCampaignDonors",
      "outputs": [
        {
          "internalType": "address[]",
          "name": "",
          "type": "address[]"
        },
        {
          "internalType": "uint256[]",
          "name": "",
          "type": "uint256[]"
        }
      ],
      "stateMutability": "view",
      "type": "function"
    }
  ],
  "bytecode": "0x608060405234801561001057600080fd5b5060006001556110a4806100256000396000f3fe6080604052600436106100555760003560e01c8063141961bc1461005a578063209b7d5f1461009657806342a4fda8146100c45780635a8a637d146100e75780637274e30d1461011557806386cdf6041461012b575b600080fd5b34801561006657600080fd5b5061007a610075366004610a89565b61014d565b60405161008d9796959493929190610ae8565b60405180910390f35b3480156100a257600080fd5b506100b66100b1366004610a89565b61033d565b60405161008d929190610b52565b6100d76100d2366004610a89565b610424565b604051901515815260200161008d565b3480156100f357600080fd5b50610107610102366004610c79565b6104d5565b60405190815260200161008d565b34801561012157600080fd5b5061010760015481565b34801561013757600080fd5b506101406106d0565b60405161008d9190610da6565b6000818154811061015d57600080fd5b6000918252602090912060099091020180546001820180546001600160a01b0390921693509061018c90610eb4565b80601f01602080910402602001604051908101604052809291908181526020018280546101b890610eb4565b80156102055780601f106101da57610100808354040283529160200191610205565b820191906000526020600020905b8154815290600101906020018083116101e857829003601f168201915b50505050509080600201805461021a90610eb4565b80601f016020809104026020016040519081016040528092919081815260200182805461024690610eb4565b80156102935780601f1061026857610100808354040283529160200191610293565b820191906000526020600020905b81548152906001019060200180831161027657829003601f168201915b5050505050908060030180546102a890610eb4565b80601f01602080910402602001604051908101604052809291908181526020018280546102d490610eb4565b80156103215780601f106102f657610100808354040283529160200191610321565b820191906000526020600020905b81548152906001019060200180831161030457829003601f168201915b5050505050908060040154908060050154908060060154905087565b606080600080848154811061035457610354610eee565b906000526020600020906009020190508060080181600701818054806020026020016040519081016040528092919081815260200182805480156103c157602002820191906000526020600020905b81546001600160a01b031681526001909101906020018083116103a3575b505050505091508080548060200260200160405190810160405280929190818152602001828054801561041357602002820191906000526020600020905b8154815260200190600101908083116103ff575b505050505090509250925050915091565b6000806000838154811061043a5761043a610eee565b600091825260208083206007600990930201918201805460018181018355918552828520349101819055600884018054928301815585529184200180546001600160a01b0319163317905581546040519294506001600160a01b03169181156108fc02919084818181858888f19350505050905080156104ce57348260050160008282546104c89190610f1a565b90915550505b9392505050565b600080604051806101200160405280896001600160a01b0316815260200188815260200187815260200186815260200185815260200160008152602001848152602001600067ffffffffffffffff81111561053257610532610bd6565b60405190808252806020026020018201604052801561055b578160200160208202803683370190505b508152602001600060405190808252806020026020018201604052801561058c578160200160208202803683370190505b5090526000805460018101825590805281517f290decd9548b62a8d60345a988386fc84ba6bc95484008f6362f93160ef3e563600990920291820180546001600160a01b0319166001600160a01b039092169190911781556020830151929350839290917f290decd9548b62a8d60345a988386fc84ba6bc95484008f6362f93160ef3e564019061061d9082610f82565b50604082015160028201906106329082610f82565b50606082015160038201906106479082610f82565b506080820151600482015560a0820151600582015560c0820151600682015560e082015180516106819160078401916020909101906109d4565b50610100820151805161069e916008840191602090910190610a1f565b505060018054915060006106b183611042565b9190505550600180546106c4919061105b565b98975050505050505050565b60606000805480602002602001604051908101604052809291908181526020016000905b828210156109cb5760008481526020908190206040805161012081019091526009850290910180546001600160a01b03168252600181018054929391929184019161073e90610eb4565b80601f016020809104026020016040519081016040528092919081815260200182805461076a90610eb4565b80156107b75780601f1061078c576101008083540402835291602001916107b7565b820191906000526020600020905b81548152906001019060200180831161079a57829003601f168201915b505050505081526020016002820180546107d090610eb4565b80601f01602080910402602001604051908101604052809291908181526020018280546107fc90610eb4565b80156108495780601f1061081e57610100808354040283529160200191610849565b820191906000526020600020905b81548152906001019060200180831161082c57829003601f168201915b5050505050815260200160038201805461086290610eb4565b80601f016020809104026020016040519081016040528092919081815260200182805461088e90610eb4565b80156108db5780601f106108b0576101008083540402835291602001916108db565b820191906000526020600020905b8154815290600101906020018083116108be57829003601f168201915b505050505081526020016004820154815260200160058201548152602001600682015481526020016007820180548060200260200160405190810160405280929190818152602001828054801561095157602002820191906000526020600020905b81548152602001906001019080831161093d575b50505050508152602001600882018054806020026020016040519081016040528092919081815260200182805480156109b357602002820191906000526020600020905b81546001600160a01b03168152600190910190602001808311610995575b505050505081525050815260200190600101906106f4565b50505050905090565b828054828255906000526020600020908101928215610a0f579160200282015b82811115610a0f5782518255916020019190600101906109f4565b50610a1b929150610a74565b5090565b828054828255906000526020600020908101928215610a0f579160200282015b82811115610a0f57825182546001600160a01b0319166001600160a01b03909116178255602090920191600190910190610a3f565b5b80821115610a1b5760008155600101610a75565b600060208284031215610a9b57600080fd5b5035919050565b6000815180845260005b81811015610ac857602081850181015186830182015201610aac565b506000602082860101526020601f19601f83011685010191505092915050565b6001600160a01b038816815260e060208201819052600090610b0c90830189610aa2565b8281036040840152610b1e8189610aa2565b90508281036060840152610b328188610aa2565b6080840196909652505060a081019290925260c090910152949350505050565b604080825283519082018190526000906020906060840190828701845b82811015610b945781516001600160a01b031684529284019290840190600101610b6f565b5050508381038285015284518082528583019183019060005b81811015610bc957835183529284019291840191600101610bad565b5090979650505050505050565b634e487b7160e01b600052604160045260246000fd5b600082601f830112610bfd57600080fd5b813567ffffffffffffffff80821115610c1857610c18610bd6565b604051601f8301601f19908116603f01168101908282118183101715610c4057610c40610bd6565b81604052838152866020858801011115610c5957600080fd5b836020870160208301376000602085830101528094505050505092915050565b60008060008060008060c08789031215610c9257600080fd5b86356001600160a01b0381168114610ca957600080fd5b9550602087013567ffffffffffffffff80821115610cc657600080fd5b610cd28a838b01610bec565b96506040890135915080821115610ce857600080fd5b610cf48a838b01610bec565b95506060890135915080821115610d0a57600080fd5b50610d1789828a01610bec565b9350506080870135915060a087013590509295509295509295565b600081518084526020808501945080840160005b83811015610d6257815187529582019590820190600101610d46565b509495945050505050565b600081518084526020808501945080840160005b83811015610d625781516001600160a01b031687529582019590820190600101610d81565b60006020808301818452808551808352604092508286019150828160051b87010184880160005b83811015610ea657888303603f19018552815180516001600160a01b0316845261012088820151818a870152610e0582870182610aa2565b9150508782015185820389870152610e1d8282610aa2565b91505060608083015186830382880152610e378382610aa2565b92505050608080830151818701525060a080830151818701525060c080830151818701525060e08083015186830382880152610e738382610d32565b925050506101008083015192508582038187015250610e928183610d6d565b968901969450505090860190600101610dcd565b509098975050505050505050565b600181811c90821680610ec857607f821691505b602082108103610ee857634e487b7160e01b600052602260045260246000fd5b50919050565b634e487b7160e01b600052603260045260246000fd5b634e487b7160e01b600052601160045260246000fd5b80820180821115610f2d57610f2d610f04565b92915050565b601f821115610f7d57600081815260208120601f850160051c81016020861015610f5a5750805b601f850160051c820191505b81811015610f7957828155600101610f66565b5050505b505050565b815167ffffffffffffffff811115610f9c57610f9c610bd6565b610fb081610faa8454610eb4565b84610f33565b602080601f831160018114610fe55760008415610fcd5750858301515b600019600386901b1c1916600185901b178555610f79565b600085815260208120601f198616915b8281101561101457888601518255948401946001909101908401610ff5565b50858210156110325787850151600019600388901b60f8161c191681555b5050505050600190811b01905550565b60006001820161105457611054610f04565b5060010190565b81810381811115610f2d57610f2d610f0456fea26469706673582212205a714a8f866e71c433bffb30895c7d715ac893e255faa4a7793bf1f9483f634764736f6c63430008110033",
  "linkReferences": {},
  "deployedLinkReferences": {}
}